{"contracts/Accounts.sol":{"Accounts":{"abi":[{"inputs":[],"stateMutability":"nonpayable","type":"constructor"},{"anonymous":false,"inputs":[{"indexed":false,"internalType":"address","name":"newAddress","type":"address"}],"name":"AccountAdded","type":"event"},{"inputs":[],"name":"accountIndex","outputs":[{"internalType":"uint256","name":"","type":"uint256"}],"stateMutability":"view","type":"function"},{"inputs":[{"internalType":"address","name":"_newAddress","type":"address"},{"internalType":"string","name":"_user","type":"string"},{"internalType":"string","name":"_location","type":"string"}],"name":"addAccount","outputs":[],"stateMutability":"payable","type":"function"},{"inputs":[],"name":"listAccounts","outputs":[{"components":[{"internalType":"string","name":"user","type":"string"},{"internalType":"address","name":"addr","type":"address"},{"internalType":"string","name":"location","type":"string"}],"internalType":"struct Accounts.Account[]","name":"","type":"tuple[]"}],"stateMutability":"view","type":"function"}],"evm":{"bytecode":{"linkReferences":{},"object":"608060405234801561001057600080fd5b50336000806101000a81548173ffffffffffffffffffffffffffffffffffffffff021916908373ffffffffffffffffffffffffffffffffffffffff16021790555060018081905550610cd5806100676000396000f3fe6080604052600436106100345760003560e01c80639e9cb27514610039578063a3de895914610064578063f01c492b14610080575b600080fd5b34801561004557600080fd5b5061004e6100ab565b60405161005b9190610456565b60405180910390f35b61007e60048036038101906100799190610629565b6100b1565b005b34801561008c57600080fd5b50610095610264565b6040516100a2919061085b565b60405180910390f35b60015481565b60008054906101000a900473ffffffffffffffffffffffffffffffffffffffff1673ffffffffffffffffffffffffffffffffffffffff163373ffffffffffffffffffffffffffffffffffffffff161461013f576040517f08c379a000000000000000000000000000000000000000000000000000000000815260040161013690610900565b60405180910390fd5b600260405180606001604052808481526020018573ffffffffffffffffffffffffffffffffffffffff16815260200183815250908060018154018082558091505060019003906000526020600020906003020160009091909190915060008201518160000190816101b09190610b2c565b5060208201518160010160006101000a81548173ffffffffffffffffffffffffffffffffffffffff021916908373ffffffffffffffffffffffffffffffffffffffff160217905550604082015181600201908161020d9190610b2c565b5050506001600081548092919061022390610c2d565b91905055507f8f42195a0bbfa58954be4349deb9efc38bdb9c298e529f705f8bc1e38bce0399836040516102579190610c84565b60405180910390a1505050565b60606002805480602002602001604051908101604052809291908181526020016000905b8282101561043457838290600052602060002090600302016040518060600160405290816000820180546102bb9061094f565b80601f01602080910402602001604051908101604052809291908181526020018280546102e79061094f565b80156103345780601f1061030957610100808354040283529160200191610334565b820191906000526020600020905b81548152906001019060200180831161031757829003601f168201915b505050505081526020016001820160009054906101000a900473ffffffffffffffffffffffffffffffffffffffff1673ffffffffffffffffffffffffffffffffffffffff1673ffffffffffffffffffffffffffffffffffffffff1681526020016002820180546103a39061094f565b80601f01602080910402602001604051908101604052809291908181526020018280546103cf9061094f565b801561041c5780601f106103f15761010080835404028352916020019161041c565b820191906000526020600020905b8154815290600101906020018083116103ff57829003601f168201915b50505050508152505081526020019060010190610288565b50505050905090565b6000819050919050565b6104508161043d565b82525050565b600060208201905061046b6000830184610447565b92915050565b6000604051905090565b600080fd5b600080fd5b600073ffffffffffffffffffffffffffffffffffffffff82169050919050565b60006104b082610485565b9050919050565b6104c0816104a5565b81146104cb57600080fd5b50565b6000813590506104dd816104b7565b92915050565b600080fd5b600080fd5b6000601f19601f8301169050919050565b7f4e487b7100000000000000000000000000000000000000000000000000000000600052604160045260246000fd5b610536826104ed565b810181811067ffffffffffffffff82111715610555576105546104fe565b5b80604052505050565b6000610568610471565b9050610574828261052d565b919050565b600067ffffffffffffffff821115610594576105936104fe565b5b61059d826104ed565b9050602081019050919050565b82818337600083830152505050565b60006105cc6105c784610579565b61055e565b9050828152602081018484840111156105e8576105e76104e8565b5b6105f38482856105aa565b509392505050565b600082601f8301126106105761060f6104e3565b5b81356106208482602086016105b9565b91505092915050565b6000806000606084860312156106425761064161047b565b5b6000610650868287016104ce565b935050602084013567ffffffffffffffff81111561067157610670610480565b5b61067d868287016105fb565b925050604084013567ffffffffffffffff81111561069e5761069d610480565b5b6106aa868287016105fb565b9150509250925092565b600081519050919050565b600082825260208201905092915050565b6000819050602082019050919050565b600081519050919050565b600082825260208201905092915050565b60005b8381101561071a5780820151818401526020810190506106ff565b60008484015250505050565b6000610731826106e0565b61073b81856106eb565b935061074b8185602086016106fc565b610754816104ed565b840191505092915050565b610768816104a5565b82525050565b6000606083016000830151848203600086015261078b8282610726565b91505060208301516107a0602086018261075f565b50604083015184820360408601526107b88282610726565b9150508091505092915050565b60006107d1838361076e565b905092915050565b6000602082019050919050565b60006107f1826106b4565b6107fb81856106bf565b93508360208202850161080d856106d0565b8060005b85811015610849578484038952815161082a85826107c5565b9450610835836107d9565b925060208a01995050600181019050610811565b50829750879550505050505092915050565b6000602082019050818103600083015261087581846107e6565b905092915050565b600082825260208201905092915050565b7f4f6e6c792074686520636f6e7472616374206f776e65722063616e207065726660008201527f6f726d207468697320616374696f6e0000000000000000000000000000000000602082015250565b60006108ea602f8361087d565b91506108f58261088e565b604082019050919050565b60006020820190508181036000830152610919816108dd565b9050919050565b7f4e487b7100000000000000000000000000000000000000000000000000000000600052602260045260246000fd5b6000600282049050600182168061096757607f821691505b60208210810361097a57610979610920565b5b50919050565b60008190508160005260206000209050919050565b60006020601f8301049050919050565b600082821b905092915050565b6000600883026109e27fffffffffffffffffffffffffffffffffffffffffffffffffffffffffffffffff826109a5565b6109ec86836109a5565b95508019841693508086168417925050509392505050565b6000819050919050565b6000610a29610a24610a1f8461043d565b610a04565b61043d565b9050919050565b6000819050919050565b610a4383610a0e565b610a57610a4f82610a30565b8484546109b2565b825550505050565b600090565b610a6c610a5f565b610a77818484610a3a565b505050565b5b81811015610a9b57610a90600082610a64565b600181019050610a7d565b5050565b601f821115610ae057610ab181610980565b610aba84610995565b81016020851015610ac9578190505b610add610ad585610995565b830182610a7c565b50505b505050565b600082821c905092915050565b6000610b0360001984600802610ae5565b1980831691505092915050565b6000610b1c8383610af2565b9150826002028217905092915050565b610b35826106e0565b67ffffffffffffffff811115610b4e57610b4d6104fe565b5b610b58825461094f565b610b63828285610a9f565b600060209050601f831160018114610b965760008415610b84578287015190505b610b8e8582610b10565b865550610bf6565b601f198416610ba486610980565b60005b82811015610bcc57848901518255600182019150602085019450602081019050610ba7565b86831015610be95784890151610be5601f891682610af2565b8355505b6001600288020188555050505b505050505050565b7f4e487b7100000000000000000000000000000000000000000000000000000000600052601160045260246000fd5b6000610c388261043d565b91507fffffffffffffffffffffffffffffffffffffffffffffffffffffffffffffffff8203610c6a57610c69610bfe565b5b600182019050919050565b610c7e816104a5565b82525050565b6000602082019050610c996000830184610c75565b9291505056fea264697066735822122018b2fc524e6ac7971411b337af09c1571c25fc228d34213d843e85f46809762e64736f6c63430008120033","opcodes":"PUSH1 0x80 PUSH1 0x40 MSTORE CALLVALUE DUP1 ISZERO PUSH2 0x10 JUMPI PUSH1 0x0 DUP1 REVERT JUMPDEST POP CALLER PUSH1 0x0 DUP1 PUSH2 0x100 EXP DUP2 SLOAD DUP2 PUSH20 0xFFFFFFFFFFFFFFFFFFFFFFFFFFFFFFFFFFFFFFFF MUL NOT AND SWAP1 DUP4 PUSH20 0xFFFFFFFFFFFFFFFFFFFFFFFFFFFFFFFFFFFFFFFF AND MUL OR SWAP1 SSTORE POP PUSH1 0x1 DUP1 DUP2 SWAP1 SSTORE POP PUSH2 0xCD5 DUP1 PUSH2 0x67 PUSH1 0x0 CODECOPY PUSH1 0x0 RETURN INVALID PUSH1 0x80 PUSH1 0x40 MSTORE PUSH1 0x4 CALLDATASIZE LT PUSH2 0x34 JUMPI PUSH1 0x0 CALLDATALOAD PUSH1 0xE0 SHR DUP1 PUSH4 0x9E9CB275 EQ PUSH2 0x39 JUMPI DUP1 PUSH4 0xA3DE8959 EQ PUSH2 0x64 JUMPI DUP1 PUSH4 0xF01C492B EQ PUSH2 0x80 JUMPI JUMPDEST PUSH1 0x0 DUP1 REVERT JUMPDEST CALLVALUE DUP1 ISZERO PUSH2 0x45 JUMPI PUSH1 0x0 DUP1 REVERT JUMPDEST POP PUSH2 0x4E PUSH2 0xAB JUMP JUMPDEST PUSH1 0x40 MLOAD PUSH2 0x5B SWAP2 SWAP1 PUSH2 0x456 JUMP JUMPDEST PUSH1 0x40 MLOAD DUP1 SWAP2 SUB SWAP1 RETURN JUMPDEST PUSH2 0x7E PUSH1 0x4 DUP1 CALLDATASIZE SUB DUP2 ADD SWAP1 PUSH2 0x79 SWAP2 SWAP1 PUSH2 0x629 JUMP JUMPDEST PUSH2 0xB1 JUMP JUMPDEST STOP JUMPDEST CALLVALUE DUP1 ISZERO PUSH2 0x8C JUMPI PUSH1 0x0 DUP1 REVERT JUMPDEST POP PUSH2 0x95 PUSH2 0x264 JUMP JUMPDEST PUSH1 0x40 MLOAD PUSH2 0xA2 SWAP2 SWAP1 PUSH2 0x85B JUMP JUMPDEST PUSH1 0x40 MLOAD DUP1 SWAP2 SUB SWAP1 RETURN JUMPDEST PUSH1 0x1 SLOAD DUP2 JUMP JUMPDEST PUSH1 0x0 DUP1 SLOAD SWAP1 PUSH2 0x100 EXP SWAP1 DIV PUSH20 0xFFFFFFFFFFFFFFFFFFFFFFFFFFFFFFFFFFFFFFFF AND PUSH20 0xFFFFFFFFFFFFFFFFFFFFFFFFFFFFFFFFFFFFFFFF AND CALLER PUSH20 0xFFFFFFFFFFFFFFFFFFFFFFFFFFFFFFFFFFFFFFFF AND EQ PUSH2 0x13F JUMPI PUSH1 0x40 MLOAD PUSH32 0x8C379A000000000000000000000000000000000000000000000000000000000 DUP2 MSTORE PUSH1 0x4 ADD PUSH2 0x136 SWAP1 PUSH2 0x900 JUMP JUMPDEST PUSH1 0x40 MLOAD DUP1 SWAP2 SUB SWAP1 REVERT JUMPDEST PUSH1 0x2 PUSH1 0x40 MLOAD DUP1 PUSH1 0x60 ADD PUSH1 0x40 MSTORE DUP1 DUP5 DUP2 MSTORE PUSH1 0x20 ADD DUP6 PUSH20 0xFFFFFFFFFFFFFFFFFFFFFFFFFFFFFFFFFFFFFFFF AND DUP2 MSTORE PUSH1 0x20 ADD DUP4 DUP2 MSTORE POP SWAP1 DUP1 PUSH1 0x1 DUP2 SLOAD ADD DUP1 DUP3 SSTORE DUP1 SWAP2 POP POP PUSH1 0x1 SWAP1 SUB SWAP1 PUSH1 0x0 MSTORE PUSH1 0x20 PUSH1 0x0 KECCAK256 SWAP1 PUSH1 0x3 MUL ADD PUSH1 0x0 SWAP1 SWAP2 SWAP1 SWAP2 SWAP1 SWAP2 POP PUSH1 0x0 DUP3 ADD MLOAD DUP2 PUSH1 0x0 ADD SWAP1 DUP2 PUSH2 0x1B0 SWAP2 SWAP1 PUSH2 0xB2C JUMP JUMPDEST POP PUSH1 0x20 DUP3 ADD MLOAD DUP2 PUSH1 0x1 ADD PUSH1 0x0 PUSH2 0x100 EXP DUP2 SLOAD DUP2 PUSH20 0xFFFFFFFFFFFFFFFFFFFFFFFFFFFFFFFFFFFFFFFF MUL NOT AND SWAP1 DUP4 PUSH20 0xFFFFFFFFFFFFFFFFFFFFFFFFFFFFFFFFFFFFFFFF AND MUL OR SWAP1 SSTORE POP PUSH1 0x40 DUP3 ADD MLOAD DUP2 PUSH1 0x2 ADD SWAP1 DUP2 PUSH2 0x20D SWAP2 SWAP1 PUSH2 0xB2C JUMP JUMPDEST POP POP POP PUSH1 0x1 PUSH1 0x0 DUP2 SLOAD DUP1 SWAP3 SWAP2 SWAP1 PUSH2 0x223 SWAP1 PUSH2 0xC2D JUMP JUMPDEST SWAP2 SWAP1 POP SSTORE POP PUSH32 0x8F42195A0BBFA58954BE4349DEB9EFC38BDB9C298E529F705F8BC1E38BCE0399 DUP4 PUSH1 0x40 MLOAD PUSH2 0x257 SWAP2 SWAP1 PUSH2 0xC84 JUMP JUMPDEST PUSH1 0x40 MLOAD DUP1 SWAP2 SUB SWAP1 LOG1 POP POP POP JUMP JUMPDEST PUSH1 0x60 PUSH1 0x2 DUP1 SLOAD DUP1 PUSH1 0x20 MUL PUSH1 0x20 ADD PUSH1 0x40 MLOAD SWAP1 DUP2 ADD PUSH1 0x40 MSTORE DUP1 SWAP3 SWAP2 SWAP1 DUP2 DUP2 MSTORE PUSH1 0x20 ADD PUSH1 0x0 SWAP1 JUMPDEST DUP3 DUP3 LT ISZERO PUSH2 0x434 JUMPI DUP4 DUP3 SWAP1 PUSH1 0x0 MSTORE PUSH1 0x20 PUSH1 0x0 KECCAK256 SWAP1 PUSH1 0x3 MUL ADD PUSH1 0x40 MLOAD DUP1 PUSH1 0x60 ADD PUSH1 0x40 MSTORE SWAP1 DUP2 PUSH1 0x0 DUP3 ADD DUP1 SLOAD PUSH2 0x2BB SWAP1 PUSH2 0x94F JUMP JUMPDEST DUP1 PUSH1 0x1F ADD PUSH1 0x20 DUP1 SWAP2 DIV MUL PUSH1 0x20 ADD PUSH1 0x40 MLOAD SWAP1 DUP2 ADD PUSH1 0x40 MSTORE DUP1 SWAP3 SWAP2 SWAP1 DUP2 DUP2 MSTORE PUSH1 0x20 ADD DUP3 DUP1 SLOAD PUSH2 0x2E7 SWAP1 PUSH2 0x94F JUMP JUMPDEST DUP1 ISZERO PUSH2 0x334 JUMPI DUP1 PUSH1 0x1F LT PUSH2 0x309 JUMPI PUSH2 0x100 DUP1 DUP4 SLOAD DIV MUL DUP4 MSTORE SWAP2 PUSH1 0x20 ADD SWAP2 PUSH2 0x334 JUMP JUMPDEST DUP3 ADD SWAP2 SWAP1 PUSH1 0x0 MSTORE PUSH1 0x20 PUSH1 0x0 KECCAK256 SWAP1 JUMPDEST DUP2 SLOAD DUP2 MSTORE SWAP1 PUSH1 0x1 ADD SWAP1 PUSH1 0x20 ADD DUP1 DUP4 GT PUSH2 0x317 JUMPI DUP3 SWAP1 SUB PUSH1 0x1F AND DUP3 ADD SWAP2 JUMPDEST POP POP POP POP POP DUP2 MSTORE PUSH1 0x20 ADD PUSH1 0x1 DUP3 ADD PUSH1 0x0 SWAP1 SLOAD SWAP1 PUSH2 0x100 EXP SWAP1 DIV PUSH20 0xFFFFFFFFFFFFFFFFFFFFFFFFFFFFFFFFFFFFFFFF AND PUSH20 0xFFFFFFFFFFFFFFFFFFFFFFFFFFFFFFFFFFFFFFFF AND PUSH20 0xFFFFFFFFFFFFFFFFFFFFFFFFFFFFFFFFFFFFFFFF AND DUP2 MSTORE PUSH1 0x20 ADD PUSH1 0x2 DUP3 ADD DUP1 SLOAD PUSH2 0x3A3 SWAP1 PUSH2 0x94F JUMP JUMPDEST DUP1 PUSH1 0x1F ADD PUSH1 0x20 DUP1 SWAP2 DIV MUL PUSH1 0x20 ADD PUSH1 0x40 MLOAD SWAP1 DUP2 ADD PUSH1 0x40 MSTORE DUP1 SWAP3 SWAP2 SWAP1 DUP2 DUP2 MSTORE PUSH1 0x20 ADD DUP3 DUP1 SLOAD PUSH2 0x3CF SWAP1 PUSH2 0x94F JUMP JUMPDEST DUP1 ISZERO PUSH2 0x41C JUMPI DUP1 PUSH1 0x1F LT PUSH2 0x3F1 JUMPI PUSH2 0x100 DUP1 DUP4 SLOAD DIV MUL DUP4 MSTORE SWAP2 PUSH1 0x20 ADD SWAP2 PUSH2 0x41C JUMP JUMPDEST DUP3 ADD SWAP2 SWAP1 PUSH1 0x0 MSTORE PUSH1 0x20 PUSH1 0x0 KECCAK256 SWAP1 JUMPDEST DUP2 SLOAD DUP2 MSTORE SWAP1 PUSH1 0x1 ADD SWAP1 PUSH1 0x20 ADD DUP1 DUP4 GT PUSH2 0x3FF JUMPI DUP3 SWAP1 SUB PUSH1 0x1F AND DUP3 ADD SWAP2 JUMPDEST POP POP POP POP POP DUP2 MSTORE POP POP DUP2 MSTORE PUSH1 0x20 ADD SWAP1 PUSH1 0x1 ADD SWAP1 PUSH2 0x288 JUMP JUMPDEST POP POP POP POP SWAP1 POP SWAP1 JUMP JUMPDEST PUSH1 0x0 DUP2 SWAP1 POP SWAP2 SWAP1 POP JUMP JUMPDEST PUSH2 0x450 DUP2 PUSH2 0x43D JUMP JUMPDEST DUP3 MSTORE POP POP JUMP JUMPDEST PUSH1 0x0 PUSH1 0x20 DUP3 ADD SWAP1 POP PUSH2 0x46B PUSH1 0x0 DUP4 ADD DUP5 PUSH2 0x447 JUMP JUMPDEST SWAP3 SWAP2 POP POP JUMP JUMPDEST PUSH1 0x0 PUSH1 0x40 MLOAD SWAP1 POP SWAP1 JUMP JUMPDEST PUSH1 0x0 DUP1 REVERT JUMPDEST PUSH1 0x0 DUP1 REVERT JUMPDEST PUSH1 0x0 PUSH20 0xFFFFFFFFFFFFFFFFFFFFFFFFFFFFFFFFFFFFFFFF DUP3 AND SWAP1 POP SWAP2 SWAP1 POP JUMP JUMPDEST PUSH1 0x0 PUSH2 0x4B0 DUP3 PUSH2 0x485 JUMP JUMPDEST SWAP1 POP SWAP2 SWAP1 POP JUMP JUMPDEST PUSH2 0x4C0 DUP2 PUSH2 0x4A5 JUMP JUMPDEST DUP2 EQ PUSH2 0x4CB JUMPI PUSH1 0x0 DUP1 REVERT JUMPDEST POP JUMP JUMPDEST PUSH1 0x0 DUP2 CALLDATALOAD SWAP1 POP PUSH2 0x4DD DUP2 PUSH2 0x4B7 JUMP JUMPDEST SWAP3 SWAP2 POP POP JUMP JUMPDEST PUSH1 0x0 DUP1 REVERT JUMPDEST PUSH1 0x0 DUP1 REVERT JUMPDEST PUSH1 0x0 PUSH1 0x1F NOT PUSH1 0x1F DUP4 ADD AND SWAP1 POP SWAP2 SWAP1 POP JUMP JUMPDEST PUSH32 0x4E487B7100000000000000000000000000000000000000000000000000000000 PUSH1 0x0 MSTORE PUSH1 0x41 PUSH1 0x4 MSTORE PUSH1 0x24 PUSH1 0x0 REVERT JUMPDEST PUSH2 0x536 DUP3 PUSH2 0x4ED JUMP JUMPDEST DUP2 ADD DUP2 DUP2 LT PUSH8 0xFFFFFFFFFFFFFFFF DUP3 GT OR ISZERO PUSH2 0x555 JUMPI PUSH2 0x554 PUSH2 0x4FE JUMP JUMPDEST JUMPDEST DUP1 PUSH1 0x40 MSTORE POP POP POP JUMP JUMPDEST PUSH1 0x0 PUSH2 0x568 PUSH2 0x471 JUMP JUMPDEST SWAP1 POP PUSH2 0x574 DUP3 DUP3 PUSH2 0x52D JUMP JUMPDEST SWAP2 SWAP1 POP JUMP JUMPDEST PUSH1 0x0 PUSH8 0xFFFFFFFFFFFFFFFF DUP3 GT ISZERO PUSH2 0x594 JUMPI PUSH2 0x593 PUSH2 0x4FE JUMP JUMPDEST JUMPDEST PUSH2 0x59D DUP3 PUSH2 0x4ED JUMP JUMPDEST SWAP1 POP PUSH1 0x20 DUP2 ADD SWAP1 POP SWAP2 SWAP1 POP JUMP JUMPDEST DUP3 DUP2 DUP4 CALLDATACOPY PUSH1 0x0 DUP4 DUP4 ADD MSTORE POP POP POP JUMP JUMPDEST PUSH1 0x0 PUSH2 0x5CC PUSH2 0x5C7 DUP5 PUSH2 0x579 JUMP JUMPDEST PUSH2 0x55E JUMP JUMPDEST SWAP1 POP DUP3 DUP2 MSTORE PUSH1 0x20 DUP2 ADD DUP5 DUP5 DUP5 ADD GT ISZERO PUSH2 0x5E8 JUMPI PUSH2 0x5E7 PUSH2 0x4E8 JUMP JUMPDEST JUMPDEST PUSH2 0x5F3 DUP5 DUP3 DUP6 PUSH2 0x5AA JUMP JUMPDEST POP SWAP4 SWAP3 POP POP POP JUMP JUMPDEST PUSH1 0x0 DUP3 PUSH1 0x1F DUP4 ADD SLT PUSH2 0x610 JUMPI PUSH2 0x60F PUSH2 0x4E3 JUMP JUMPDEST JUMPDEST DUP2 CALLDATALOAD PUSH2 0x620 DUP5 DUP3 PUSH1 0x20 DUP7 ADD PUSH2 0x5B9 JUMP JUMPDEST SWAP2 POP POP SWAP3 SWAP2 POP POP JUMP JUMPDEST PUSH1 0x0 DUP1 PUSH1 0x0 PUSH1 0x60 DUP5 DUP7 SUB SLT ISZERO PUSH2 0x642 JUMPI PUSH2 0x641 PUSH2 0x47B JUMP JUMPDEST JUMPDEST PUSH1 0x0 PUSH2 0x650 DUP7 DUP3 DUP8 ADD PUSH2 0x4CE JUMP JUMPDEST SWAP4 POP POP PUSH1 0x20 DUP5 ADD CALLDATALOAD PUSH8 0xFFFFFFFFFFFFFFFF DUP2 GT ISZERO PUSH2 0x671 JUMPI PUSH2 0x670 PUSH2 0x480 JUMP JUMPDEST JUMPDEST PUSH2 0x67D DUP7 DUP3 DUP8 ADD PUSH2 0x5FB JUMP JUMPDEST SWAP3 POP POP PUSH1 0x40 DUP5 ADD CALLDATALOAD PUSH8 0xFFFFFFFFFFFFFFFF DUP2 GT ISZERO PUSH2 0x69E JUMPI PUSH2 0x69D PUSH2 0x480 JUMP JUMPDEST JUMPDEST PUSH2 0x6AA DUP7 DUP3 DUP8 ADD PUSH2 0x5FB JUMP JUMPDEST SWAP2 POP POP SWAP3 POP SWAP3 POP SWAP3 JUMP JUMPDEST PUSH1 0x0 DUP2 MLOAD SWAP1 POP SWAP2 SWAP1 POP JUMP JUMPDEST PUSH1 0x0 DUP3 DUP3 MSTORE PUSH1 0x20 DUP3 ADD SWAP1 POP SWAP3 SWAP2 POP POP JUMP JUMPDEST PUSH1 0x0 DUP2 SWAP1 POP PUSH1 0x20 DUP3 ADD SWAP1 POP SWAP2 SWAP1 POP JUMP JUMPDEST PUSH1 0x0 DUP2 MLOAD SWAP1 POP SWAP2 SWAP1 POP JUMP JUMPDEST PUSH1 0x0 DUP3 DUP3 MSTORE PUSH1 0x20 DUP3 ADD SWAP1 POP SWAP3 SWAP2 POP POP JUMP JUMPDEST PUSH1 0x0 JUMPDEST DUP4 DUP2 LT ISZERO PUSH2 0x71A JUMPI DUP1 DUP3 ADD MLOAD DUP2 DUP5 ADD MSTORE PUSH1 0x20 DUP2 ADD SWAP1 POP PUSH2 0x6FF JUMP JUMPDEST PUSH1 0x0 DUP5 DUP5 ADD MSTORE POP POP POP POP JUMP JUMPDEST PUSH1 0x0 PUSH2 0x731 DUP3 PUSH2 0x6E0 JUMP JUMPDEST PUSH2 0x73B DUP2 DUP6 PUSH2 0x6EB JUMP JUMPDEST SWAP4 POP PUSH2 0x74B DUP2 DUP6 PUSH1 0x20 DUP7 ADD PUSH2 0x6FC JUMP JUMPDEST PUSH2 0x754 DUP2 PUSH2 0x4ED JUMP JUMPDEST DUP5 ADD SWAP2 POP POP SWAP3 SWAP2 POP POP JUMP JUMPDEST PUSH2 0x768 DUP2 PUSH2 0x4A5 JUMP JUMPDEST DUP3 MSTORE POP POP JUMP JUMPDEST PUSH1 0x0 PUSH1 0x60 DUP4 ADD PUSH1 0x0 DUP4 ADD MLOAD DUP5 DUP3 SUB PUSH1 0x0 DUP7 ADD MSTORE PUSH2 0x78B DUP3 DUP3 PUSH2 0x726 JUMP JUMPDEST SWAP2 POP POP PUSH1 0x20 DUP4 ADD MLOAD PUSH2 0x7A0 PUSH1 0x20 DUP7 ADD DUP3 PUSH2 0x75F JUMP JUMPDEST POP PUSH1 0x40 DUP4 ADD MLOAD DUP5 DUP3 SUB PUSH1 0x40 DUP7 ADD MSTORE PUSH2 0x7B8 DUP3 DUP3 PUSH2 0x726 JUMP JUMPDEST SWAP2 POP POP DUP1 SWAP2 POP POP SWAP3 SWAP2 POP POP JUMP JUMPDEST PUSH1 0x0 PUSH2 0x7D1 DUP4 DUP4 PUSH2 0x76E JUMP JUMPDEST SWAP1 POP SWAP3 SWAP2 POP POP JUMP JUMPDEST PUSH1 0x0 PUSH1 0x20 DUP3 ADD SWAP1 POP SWAP2 SWAP1 POP JUMP JUMPDEST PUSH1 0x0 PUSH2 0x7F1 DUP3 PUSH2 0x6B4 JUMP JUMPDEST PUSH2 0x7FB DUP2 DUP6 PUSH2 0x6BF JUMP JUMPDEST SWAP4 POP DUP4 PUSH1 0x20 DUP3 MUL DUP6 ADD PUSH2 0x80D DUP6 PUSH2 0x6D0 JUMP JUMPDEST DUP1 PUSH1 0x0 JUMPDEST DUP6 DUP2 LT ISZERO PUSH2 0x849 JUMPI DUP5 DUP5 SUB DUP10 MSTORE DUP2 MLOAD PUSH2 0x82A DUP6 DUP3 PUSH2 0x7C5 JUMP JUMPDEST SWAP5 POP PUSH2 0x835 DUP4 PUSH2 0x7D9 JUMP JUMPDEST SWAP3 POP PUSH1 0x20 DUP11 ADD SWAP10 POP POP PUSH1 0x1 DUP2 ADD SWAP1 POP PUSH2 0x811 JUMP JUMPDEST POP DUP3 SWAP8 POP DUP8 SWAP6 POP POP POP POP POP POP SWAP3 SWAP2 POP POP JUMP JUMPDEST PUSH1 0x0 PUSH1 0x20 DUP3 ADD SWAP1 POP DUP2 DUP2 SUB PUSH1 0x0 DUP4 ADD MSTORE PUSH2 0x875 DUP2 DUP5 PUSH2 0x7E6 JUMP JUMPDEST SWAP1 POP SWAP3 SWAP2 POP POP JUMP JUMPDEST PUSH1 0x0 DUP3 DUP3 MSTORE PUSH1 0x20 DUP3 ADD SWAP1 POP SWAP3 SWAP2 POP POP JUMP JUMPDEST PUSH32 0x4F6E6C792074686520636F6E7472616374206F776E65722063616E2070657266 PUSH1 0x0 DUP3 ADD MSTORE PUSH32 0x6F726D207468697320616374696F6E0000000000000000000000000000000000 PUSH1 0x20 DUP3 ADD MSTORE POP JUMP JUMPDEST PUSH1 0x0 PUSH2 0x8EA PUSH1 0x2F DUP4 PUSH2 0x87D JUMP JUMPDEST SWAP2 POP PUSH2 0x8F5 DUP3 PUSH2 0x88E JUMP JUMPDEST PUSH1 0x40 DUP3 ADD SWAP1 POP SWAP2 SWAP1 POP JUMP JUMPDEST PUSH1 0x0 PUSH1 0x20 DUP3 ADD SWAP1 POP DUP2 DUP2 SUB PUSH1 0x0 DUP4 ADD MSTORE PUSH2 0x919 DUP2 PUSH2 0x8DD JUMP JUMPDEST SWAP1 POP SWAP2 SWAP1 POP JUMP JUMPDEST PUSH32 0x4E487B7100000000000000000000000000000000000000000000000000000000 PUSH1 0x0 MSTORE PUSH1 0x22 PUSH1 0x4 MSTORE PUSH1 0x24 PUSH1 0x0 REVERT JUMPDEST PUSH1 0x0 PUSH1 0x2 DUP3 DIV SWAP1 POP PUSH1 0x1 DUP3 AND DUP1 PUSH2 0x967 JUMPI PUSH1 0x7F DUP3 AND SWAP2 POP JUMPDEST PUSH1 0x20 DUP3 LT DUP2 SUB PUSH2 0x97A JUMPI PUSH2 0x979 PUSH2 0x920 JUMP JUMPDEST JUMPDEST POP SWAP2 SWAP1 POP JUMP JUMPDEST PUSH1 0x0 DUP2 SWAP1 POP DUP2 PUSH1 0x0 MSTORE PUSH1 0x20 PUSH1 0x0 KECCAK256 SWAP1 POP SWAP2 SWAP1 POP JUMP JUMPDEST PUSH1 0x0 PUSH1 0x20 PUSH1 0x1F DUP4 ADD DIV SWAP1 POP SWAP2 SWAP1 POP JUMP JUMPDEST PUSH1 0x0 DUP3 DUP3 SHL SWAP1 POP SWAP3 SWAP2 POP POP JUMP JUMPDEST PUSH1 0x0 PUSH1 0x8 DUP4 MUL PUSH2 0x9E2 PUSH32 0xFFFFFFFFFFFFFFFFFFFFFFFFFFFFFFFFFFFFFFFFFFFFFFFFFFFFFFFFFFFFFFFF DUP3 PUSH2 0x9A5 JUMP JUMPDEST PUSH2 0x9EC DUP7 DUP4 PUSH2 0x9A5 JUMP JUMPDEST SWAP6 POP DUP1 NOT DUP5 AND SWAP4 POP DUP1 DUP7 AND DUP5 OR SWAP3 POP POP POP SWAP4 SWAP3 POP POP POP JUMP JUMPDEST PUSH1 0x0 DUP2 SWAP1 POP SWAP2 SWAP1 POP JUMP JUMPDEST PUSH1 0x0 PUSH2 0xA29 PUSH2 0xA24 PUSH2 0xA1F DUP5 PUSH2 0x43D JUMP JUMPDEST PUSH2 0xA04 JUMP JUMPDEST PUSH2 0x43D JUMP JUMPDEST SWAP1 POP SWAP2 SWAP1 POP JUMP JUMPDEST PUSH1 0x0 DUP2 SWAP1 POP SWAP2 SWAP1 POP JUMP JUMPDEST PUSH2 0xA43 DUP4 PUSH2 0xA0E JUMP JUMPDEST PUSH2 0xA57 PUSH2 0xA4F DUP3 PUSH2 0xA30 JUMP JUMPDEST DUP5 DUP5 SLOAD PUSH2 0x9B2 JUMP JUMPDEST DUP3 SSTORE POP POP POP POP JUMP JUMPDEST PUSH1 0x0 SWAP1 JUMP JUMPDEST PUSH2 0xA6C PUSH2 0xA5F JUMP JUMPDEST PUSH2 0xA77 DUP2 DUP5 DUP5 PUSH2 0xA3A JUMP JUMPDEST POP POP POP JUMP JUMPDEST JUMPDEST DUP2 DUP2 LT ISZERO PUSH2 0xA9B JUMPI PUSH2 0xA90 PUSH1 0x0 DUP3 PUSH2 0xA64 JUMP JUMPDEST PUSH1 0x1 DUP2 ADD SWAP1 POP PUSH2 0xA7D JUMP JUMPDEST POP POP JUMP JUMPDEST PUSH1 0x1F DUP3 GT ISZERO PUSH2 0xAE0 JUMPI PUSH2 0xAB1 DUP2 PUSH2 0x980 JUMP JUMPDEST PUSH2 0xABA DUP5 PUSH2 0x995 JUMP JUMPDEST DUP2 ADD PUSH1 0x20 DUP6 LT ISZERO PUSH2 0xAC9 JUMPI DUP2 SWAP1 POP JUMPDEST PUSH2 0xADD PUSH2 0xAD5 DUP6 PUSH2 0x995 JUMP JUMPDEST DUP4 ADD DUP3 PUSH2 0xA7C JUMP JUMPDEST POP POP JUMPDEST POP POP POP JUMP JUMPDEST PUSH1 0x0 DUP3 DUP3 SHR SWAP1 POP SWAP3 SWAP2 POP POP JUMP JUMPDEST PUSH1 0x0 PUSH2 0xB03 PUSH1 0x0 NOT DUP5 PUSH1 0x8 MUL PUSH2 0xAE5 JUMP JUMPDEST NOT DUP1 DUP4 AND SWAP2 POP POP SWAP3 SWAP2 POP POP JUMP JUMPDEST PUSH1 0x0 PUSH2 0xB1C DUP4 DUP4 PUSH2 0xAF2 JUMP JUMPDEST SWAP2 POP DUP3 PUSH1 0x2 MUL DUP3 OR SWAP1 POP SWAP3 SWAP2 POP POP JUMP JUMPDEST PUSH2 0xB35 DUP3 PUSH2 0x6E0 JUMP JUMPDEST PUSH8 0xFFFFFFFFFFFFFFFF DUP2 GT ISZERO PUSH2 0xB4E JUMPI PUSH2 0xB4D PUSH2 0x4FE JUMP JUMPDEST JUMPDEST PUSH2 0xB58 DUP3 SLOAD PUSH2 0x94F JUMP JUMPDEST PUSH2 0xB63 DUP3 DUP3 DUP6 PUSH2 0xA9F JUMP JUMPDEST PUSH1 0x0 PUSH1 0x20 SWAP1 POP PUSH1 0x1F DUP4 GT PUSH1 0x1 DUP2 EQ PUSH2 0xB96 JUMPI PUSH1 0x0 DUP5 ISZERO PUSH2 0xB84 JUMPI DUP3 DUP8 ADD MLOAD SWAP1 POP JUMPDEST PUSH2 0xB8E DUP6 DUP3 PUSH2 0xB10 JUMP JUMPDEST DUP7 SSTORE POP PUSH2 0xBF6 JUMP JUMPDEST PUSH1 0x1F NOT DUP5 AND PUSH2 0xBA4 DUP7 PUSH2 0x980 JUMP JUMPDEST PUSH1 0x0 JUMPDEST DUP3 DUP2 LT ISZERO PUSH2 0xBCC JUMPI DUP5 DUP10 ADD MLOAD DUP3 SSTORE PUSH1 0x1 DUP3 ADD SWAP2 POP PUSH1 0x20 DUP6 ADD SWAP5 POP PUSH1 0x20 DUP2 ADD SWAP1 POP PUSH2 0xBA7 JUMP JUMPDEST DUP7 DUP4 LT ISZERO PUSH2 0xBE9 JUMPI DUP5 DUP10 ADD MLOAD PUSH2 0xBE5 PUSH1 0x1F DUP10 AND DUP3 PUSH2 0xAF2 JUMP JUMPDEST DUP4 SSTORE POP JUMPDEST PUSH1 0x1 PUSH1 0x2 DUP9 MUL ADD DUP9 SSTORE POP POP POP JUMPDEST POP POP POP POP POP POP JUMP JUMPDEST PUSH32 0x4E487B7100000000000000000000000000000000000000000000000000000000 PUSH1 0x0 MSTORE PUSH1 0x11 PUSH1 0x4 MSTORE PUSH1 0x24 PUSH1 0x0 REVERT JUMPDEST PUSH1 0x0 PUSH2 0xC38 DUP3 PUSH2 0x43D JUMP JUMPDEST SWAP2 POP PUSH32 0xFFFFFFFFFFFFFFFFFFFFFFFFFFFFFFFFFFFFFFFFFFFFFFFFFFFFFFFFFFFFFFFF DUP3 SUB PUSH2 0xC6A JUMPI PUSH2 0xC69 PUSH2 0xBFE JUMP JUMPDEST JUMPDEST PUSH1 0x1 DUP3 ADD SWAP1 POP SWAP2 SWAP1 POP JUMP JUMPDEST PUSH2 0xC7E DUP2 PUSH2 0x4A5 JUMP JUMPDEST DUP3 MSTORE POP POP JUMP JUMPDEST PUSH1 0x0 PUSH1 0x20 DUP3 ADD SWAP1 POP PUSH2 0xC99 PUSH1 0x0 DUP4 ADD DUP5 PUSH2 0xC75 JUMP JUMPDEST SWAP3 SWAP2 POP POP JUMP INVALID LOG2 PUSH5 0x6970667358 0x22 SLT KECCAK256 XOR 0xB2 0xFC MSTORE 0x4E PUSH11 0xC7971411B337AF09C1571C 0x25 0xFC 0x22 DUP14 CALLVALUE 0x21 RETURNDATASIZE DUP5 RETURNDATACOPY DUP6 DELEGATECALL PUSH9 0x9762E64736F6C6343 STOP ADDMOD SLT STOP CALLER "},"methodIdentifiers":{"accountIndex()":"9e9cb275","addAccount(address,string,string)":"a3de8959","listAccounts()":"f01c492b"}}}}}