{
  "_format": "hh-sol-artifact-1",
  "contractName": "SupplyChain",
  "sourceName": "contracts/SupplyChain.sol",
  "abi": [
    {
      "inputs": [],
      "stateMutability": "nonpayable",
      "type": "constructor"
    },
    {
      "anonymous": false,
      "inputs": [
        {
          "indexed": false,
          "internalType": "uint256",
          "name": "newIndex",
          "type": "uint256"
        }
      ],
      "name": "ItemAdded",
      "type": "event"
    },
    {
      "anonymous": false,
      "inputs": [
        {
          "indexed": false,
          "internalType": "uint256",
          "name": "newIndex",
          "type": "uint256"
        }
      ],
      "name": "ItemTransferred",
      "type": "event"
    },
    {
      "inputs": [
        {
          "internalType": "address",
          "name": "_currentOwner",
          "type": "address"
        },
        {
          "internalType": "string",
          "name": "_name",
          "type": "string"
        }
      ],
      "name": "createItem",
      "outputs": [],
      "stateMutability": "payable",
      "type": "function"
    },
    {
      "inputs": [
        {
          "internalType": "uint256",
          "name": "_itemIndex",
          "type": "uint256"
        }
      ],
      "name": "getItem",
      "outputs": [
        {
          "components": [
            {
              "internalType": "string",
              "name": "name",
              "type": "string"
            },
            {
              "internalType": "uint256",
              "name": "itemID",
              "type": "uint256"
            },
            {
              "internalType": "address",
              "name": "ownerID",
              "type": "address"
            },
            {
              "internalType": "address[]",
              "name": "ownersHistory",
              "type": "address[]"
            }
          ],
          "internalType": "struct SupplyChain.Item",
          "name": "",
          "type": "tuple"
        }
      ],
      "stateMutability": "view",
      "type": "function"
    },
    {
      "inputs": [],
      "name": "itemIndex",
      "outputs": [
        {
          "internalType": "uint256",
          "name": "",
          "type": "uint256"
        }
      ],
      "stateMutability": "view",
      "type": "function"
    },
    {
      "inputs": [],
      "name": "listItem",
      "outputs": [
        {
          "components": [
            {
              "internalType": "string",
              "name": "name",
              "type": "string"
            },
            {
              "internalType": "uint256",
              "name": "itemID",
              "type": "uint256"
            },
            {
              "internalType": "address",
              "name": "ownerID",
              "type": "address"
            },
            {
              "internalType": "address[]",
              "name": "ownersHistory",
              "type": "address[]"
            }
          ],
          "internalType": "struct SupplyChain.Item[]",
          "name": "",
          "type": "tuple[]"
        }
      ],
      "stateMutability": "view",
      "type": "function"
    },
    {
      "inputs": [
        {
          "internalType": "address",
          "name": "_nextOwner",
          "type": "address"
        },
        {
          "internalType": "uint256",
          "name": "_itemIndex",
          "type": "uint256"
        }
      ],
      "name": "transferItem",
      "outputs": [],
      "stateMutability": "payable",
      "type": "function"
    },
    {
      "inputs": [
        {
          "internalType": "uint256",
          "name": "_itemIndex",
          "type": "uint256"
        }
      ],
      "name": "viewHistory",
      "outputs": [
        {
          "internalType": "address[]",
          "name": "",
          "type": "address[]"
        }
      ],
      "stateMutability": "view",
      "type": "function"
    }
  ],
  "bytecode": "0x608060405234801561001057600080fd5b50336000806101000a81548173ffffffffffffffffffffffffffffffffffffffff021916908373ffffffffffffffffffffffffffffffffffffffff1602179055506001808190555061148c806100676000396000f3fe6080604052600436106100555760003560e01c806326fb76c21461005a5780633129e773146100765780635b679c8f146100b357806367c65e99146100de578063ad2b46a8146100fa578063e07bb1a714610137575b600080fd5b610074600480360381019061006f9190610b1b565b610162565b005b34801561008257600080fd5b5061009d60048036038101906100989190610bad565b6102c8565b6040516100aa9190610d90565b60405180910390f35b3480156100bf57600080fd5b506100c8610475565b6040516100d59190610ede565b60405180910390f35b6100f860048036038101906100f39190610f00565b6106d0565b005b34801561010657600080fd5b50610121600480360381019061011c9190610bad565b61087b565b60405161012e9190610faf565b60405180910390f35b34801561014357600080fd5b5061014c61091f565b6040516101599190610fe0565b60405180910390f35b8060026000600154815260200190815260200160002060000190816101879190611207565b50600154600260006001548152602001908152602001600020600101819055508160026000600154815260200190815260200160002060020160006101000a81548173ffffffffffffffffffffffffffffffffffffffff021916908373ffffffffffffffffffffffffffffffffffffffff160217905550600260006001548152602001908152602001600020600301829080600181540180825580915050600190039060005260206000200160009091909190916101000a81548173ffffffffffffffffffffffffffffffffffffffff021916908373ffffffffffffffffffffffffffffffffffffffff1602179055507f186760a37e06b130959978c68b5c592841caf4f64de1dc960b2c54cf454ca9dd600160008154809291906102ab90611308565b919050556040516102bc9190610fe0565b60405180910390a15050565b6102d0610925565b600260008381526020019081526020016000206040518060800160405290816000820180546102fe9061102a565b80601f016020809104026020016040519081016040528092919081815260200182805461032a9061102a565b80156103775780601f1061034c57610100808354040283529160200191610377565b820191906000526020600020905b81548152906001019060200180831161035a57829003601f168201915b50505050508152602001600182015481526020016002820160009054906101000a900473ffffffffffffffffffffffffffffffffffffffff1673ffffffffffffffffffffffffffffffffffffffff1673ffffffffffffffffffffffffffffffffffffffff1681526020016003820180548060200260200160405190810160405280929190818152602001828054801561046557602002820191906000526020600020905b8160009054906101000a900473ffffffffffffffffffffffffffffffffffffffff1673ffffffffffffffffffffffffffffffffffffffff168152602001906001019080831161041b575b5050505050815250509050919050565b60606000600180546104879190611350565b67ffffffffffffffff8111156104a05761049f6109f0565b5b6040519080825280602002602001820160405280156104d957816020015b6104c6610925565b8152602001906001900390816104be5790505b5090506000600190505b6001548110156106c8576002600082815260200190815260200160002060405180608001604052908160008201805461051b9061102a565b80601f01602080910402602001604051908101604052809291908181526020018280546105479061102a565b80156105945780601f1061056957610100808354040283529160200191610594565b820191906000526020600020905b81548152906001019060200180831161057757829003601f168201915b50505050508152602001600182015481526020016002820160009054906101000a900473ffffffffffffffffffffffffffffffffffffffff1673ffffffffffffffffffffffffffffffffffffffff1673ffffffffffffffffffffffffffffffffffffffff1681526020016003820180548060200260200160405190810160405280929190818152602001828054801561068257602002820191906000526020600020905b8160009054906101000a900473ffffffffffffffffffffffffffffffffffffffff1673ffffffffffffffffffffffffffffffffffffffff1681526020019060010190808311610638575b505050505081525050826001836106999190611350565b815181106106aa576106a9611384565b5b602002602001018190525080806106c090611308565b9150506104e3565b508091505090565b3373ffffffffffffffffffffffffffffffffffffffff166002600083815260200190815260200160002060020160009054906101000a900473ffffffffffffffffffffffffffffffffffffffff1673ffffffffffffffffffffffffffffffffffffffff1614610774576040517f08c379a000000000000000000000000000000000000000000000000000000000815260040161076b90611436565b60405180910390fd5b816002600083815260200190815260200160002060020160006101000a81548173ffffffffffffffffffffffffffffffffffffffff021916908373ffffffffffffffffffffffffffffffffffffffff16021790555060026000828152602001908152602001600020600301829080600181540180825580915050600190039060005260206000200160009091909190916101000a81548173ffffffffffffffffffffffffffffffffffffffff021916908373ffffffffffffffffffffffffffffffffffffffff1602179055507f69a3154afc2f977f539aade6e574d3e3335c959f05cb62d3435a5aac5256ccef8160405161086f9190610fe0565b60405180910390a15050565b60606002600083815260200190815260200160002060030180548060200260200160405190810160405280929190818152602001828054801561091357602002820191906000526020600020905b8160009054906101000a900473ffffffffffffffffffffffffffffffffffffffff1673ffffffffffffffffffffffffffffffffffffffff16815260200190600101908083116108c9575b50505050509050919050565b60015481565b60405180608001604052806060815260200160008152602001600073ffffffffffffffffffffffffffffffffffffffff168152602001606081525090565b6000604051905090565b600080fd5b600080fd5b600073ffffffffffffffffffffffffffffffffffffffff82169050919050565b60006109a282610977565b9050919050565b6109b281610997565b81146109bd57600080fd5b50565b6000813590506109cf816109a9565b92915050565b600080fd5b600080fd5b6000601f19601f8301169050919050565b7f4e487b7100000000000000000000000000000000000000000000000000000000600052604160045260246000fd5b610a28826109df565b810181811067ffffffffffffffff82111715610a4757610a466109f0565b5b80604052505050565b6000610a5a610963565b9050610a668282610a1f565b919050565b600067ffffffffffffffff821115610a8657610a856109f0565b5b610a8f826109df565b9050602081019050919050565b82818337600083830152505050565b6000610abe610ab984610a6b565b610a50565b905082815260208101848484011115610ada57610ad96109da565b5b610ae5848285610a9c565b509392505050565b600082601f830112610b0257610b016109d5565b5b8135610b12848260208601610aab565b91505092915050565b60008060408385031215610b3257610b3161096d565b5b6000610b40858286016109c0565b925050602083013567ffffffffffffffff811115610b6157610b60610972565b5b610b6d85828601610aed565b9150509250929050565b6000819050919050565b610b8a81610b77565b8114610b9557600080fd5b50565b600081359050610ba781610b81565b92915050565b600060208284031215610bc357610bc261096d565b5b6000610bd184828501610b98565b91505092915050565b600081519050919050565b600082825260208201905092915050565b60005b83811015610c14578082015181840152602081019050610bf9565b60008484015250505050565b6000610c2b82610bda565b610c358185610be5565b9350610c45818560208601610bf6565b610c4e816109df565b840191505092915050565b610c6281610b77565b82525050565b610c7181610997565b82525050565b600081519050919050565b600082825260208201905092915050565b6000819050602082019050919050565b6000610caf8383610c68565b60208301905092915050565b6000602082019050919050565b6000610cd382610c77565b610cdd8185610c82565b9350610ce883610c93565b8060005b83811015610d19578151610d008882610ca3565b9750610d0b83610cbb565b925050600181019050610cec565b5085935050505092915050565b60006080830160008301518482036000860152610d438282610c20565b9150506020830151610d586020860182610c59565b506040830151610d6b6040860182610c68565b5060608301518482036060860152610d838282610cc8565b9150508091505092915050565b60006020820190508181036000830152610daa8184610d26565b905092915050565b600081519050919050565b600082825260208201905092915050565b6000819050602082019050919050565b60006080830160008301518482036000860152610dfb8282610c20565b9150506020830151610e106020860182610c59565b506040830151610e236040860182610c68565b5060608301518482036060860152610e3b8282610cc8565b9150508091505092915050565b6000610e548383610dde565b905092915050565b6000602082019050919050565b6000610e7482610db2565b610e7e8185610dbd565b935083602082028501610e9085610dce565b8060005b85811015610ecc5784840389528151610ead8582610e48565b9450610eb883610e5c565b925060208a01995050600181019050610e94565b50829750879550505050505092915050565b60006020820190508181036000830152610ef88184610e69565b905092915050565b60008060408385031215610f1757610f1661096d565b5b6000610f25858286016109c0565b9250506020610f3685828601610b98565b9150509250929050565b600082825260208201905092915050565b6000610f5c82610c77565b610f668185610f40565b9350610f7183610c93565b8060005b83811015610fa2578151610f898882610ca3565b9750610f9483610cbb565b925050600181019050610f75565b5085935050505092915050565b60006020820190508181036000830152610fc98184610f51565b905092915050565b610fda81610b77565b82525050565b6000602082019050610ff56000830184610fd1565b92915050565b7f4e487b7100000000000000000000000000000000000000000000000000000000600052602260045260246000fd5b6000600282049050600182168061104257607f821691505b60208210810361105557611054610ffb565b5b50919050565b60008190508160005260206000209050919050565b60006020601f8301049050919050565b600082821b905092915050565b6000600883026110bd7fffffffffffffffffffffffffffffffffffffffffffffffffffffffffffffffff82611080565b6110c78683611080565b95508019841693508086168417925050509392505050565b6000819050919050565b60006111046110ff6110fa84610b77565b6110df565b610b77565b9050919050565b6000819050919050565b61111e836110e9565b61113261112a8261110b565b84845461108d565b825550505050565b600090565b61114761113a565b611152818484611115565b505050565b5b818110156111765761116b60008261113f565b600181019050611158565b5050565b601f8211156111bb5761118c8161105b565b61119584611070565b810160208510156111a4578190505b6111b86111b085611070565b830182611157565b50505b505050565b600082821c905092915050565b60006111de600019846008026111c0565b1980831691505092915050565b60006111f783836111cd565b9150826002028217905092915050565b61121082610bda565b67ffffffffffffffff811115611229576112286109f0565b5b611233825461102a565b61123e82828561117a565b600060209050601f831160018114611271576000841561125f578287015190505b61126985826111eb565b8655506112d1565b601f19841661127f8661105b565b60005b828110156112a757848901518255600182019150602085019450602081019050611282565b868310156112c457848901516112c0601f8916826111cd565b8355505b6001600288020188555050505b505050505050565b7f4e487b7100000000000000000000000000000000000000000000000000000000600052601160045260246000fd5b600061131382610b77565b91507fffffffffffffffffffffffffffffffffffffffffffffffffffffffffffffffff8203611345576113446112d9565b5b600182019050919050565b600061135b82610b77565b915061136683610b77565b925082820390508181111561137e5761137d6112d9565b5b92915050565b7f4e487b7100000000000000000000000000000000000000000000000000000000600052603260045260246000fd5b600082825260208201905092915050565b7f43616e206f6e6c79206265207472616e7366657272656420627920746865206f60008201527f776e657200000000000000000000000000000000000000000000000000000000602082015250565b60006114206024836113b3565b915061142b826113c4565b604082019050919050565b6000602082019050818103600083015261144f81611413565b905091905056fea2646970667358221220f183702fbd4c4103ac92cb2dec2d77ebedf275b171d0721a087ac1a39f0adfe764736f6c63430008120033",
  "linkReferences": {},
  "deployedLinkReferences": {}
}