{
  "_format": "hh-sol-artifact-1",
  "contractName": "Accounts",
  "sourceName": "contracts/Accounts.sol",
  "abi": [
    {
      "inputs": [],
      "stateMutability": "nonpayable",
      "type": "constructor"
    },
    {
      "anonymous": false,
      "inputs": [
        {
          "indexed": false,
          "internalType": "address",
          "name": "newAddress",
          "type": "address"
        }
      ],
      "name": "AccountAdded",
      "type": "event"
    },
    {
      "inputs": [],
      "name": "accountIndex",
      "outputs": [
        {
          "internalType": "uint256",
          "name": "",
          "type": "uint256"
        }
      ],
      "stateMutability": "view",
      "type": "function"
    },
    {
      "inputs": [
        {
          "internalType": "address",
          "name": "_newAddress",
          "type": "address"
        },
        {
          "internalType": "string",
          "name": "_user",
          "type": "string"
        },
        {
          "internalType": "string",
          "name": "_location",
          "type": "string"
        }
      ],
      "name": "addAccount",
      "outputs": [],
      "stateMutability": "payable",
      "type": "function"
    },
    {
      "inputs": [],
      "name": "listAccounts",
      "outputs": [
        {
          "components": [
            {
              "internalType": "string",
              "name": "user",
              "type": "string"
            },
            {
              "internalType": "address",
              "name": "addr",
              "type": "address"
            },
            {
              "internalType": "string",
              "name": "location",
              "type": "string"
            }
          ],
          "internalType": "struct Accounts.Account[]",
          "name": "",
          "type": "tuple[]"
        }
      ],
      "stateMutability": "view",
      "type": "function"
    }
  ],
  "bytecode": "0x608060405234801561001057600080fd5b50336000806101000a81548173ffffffffffffffffffffffffffffffffffffffff021916908373ffffffffffffffffffffffffffffffffffffffff16021790555060018081905550610cd5806100676000396000f3fe6080604052600436106100345760003560e01c80639e9cb27514610039578063a3de895914610064578063f01c492b14610080575b600080fd5b34801561004557600080fd5b5061004e6100ab565b60405161005b9190610456565b60405180910390f35b61007e60048036038101906100799190610629565b6100b1565b005b34801561008c57600080fd5b50610095610264565b6040516100a2919061085b565b60405180910390f35b60015481565b60008054906101000a900473ffffffffffffffffffffffffffffffffffffffff1673ffffffffffffffffffffffffffffffffffffffff163373ffffffffffffffffffffffffffffffffffffffff161461013f576040517f08c379a000000000000000000000000000000000000000000000000000000000815260040161013690610900565b60405180910390fd5b600260405180606001604052808481526020018573ffffffffffffffffffffffffffffffffffffffff16815260200183815250908060018154018082558091505060019003906000526020600020906003020160009091909190915060008201518160000190816101b09190610b2c565b5060208201518160010160006101000a81548173ffffffffffffffffffffffffffffffffffffffff021916908373ffffffffffffffffffffffffffffffffffffffff160217905550604082015181600201908161020d9190610b2c565b5050506001600081548092919061022390610c2d565b91905055507f8f42195a0bbfa58954be4349deb9efc38bdb9c298e529f705f8bc1e38bce0399836040516102579190610c84565b60405180910390a1505050565b60606002805480602002602001604051908101604052809291908181526020016000905b8282101561043457838290600052602060002090600302016040518060600160405290816000820180546102bb9061094f565b80601f01602080910402602001604051908101604052809291908181526020018280546102e79061094f565b80156103345780601f1061030957610100808354040283529160200191610334565b820191906000526020600020905b81548152906001019060200180831161031757829003601f168201915b505050505081526020016001820160009054906101000a900473ffffffffffffffffffffffffffffffffffffffff1673ffffffffffffffffffffffffffffffffffffffff1673ffffffffffffffffffffffffffffffffffffffff1681526020016002820180546103a39061094f565b80601f01602080910402602001604051908101604052809291908181526020018280546103cf9061094f565b801561041c5780601f106103f15761010080835404028352916020019161041c565b820191906000526020600020905b8154815290600101906020018083116103ff57829003601f168201915b50505050508152505081526020019060010190610288565b50505050905090565b6000819050919050565b6104508161043d565b82525050565b600060208201905061046b6000830184610447565b92915050565b6000604051905090565b600080fd5b600080fd5b600073ffffffffffffffffffffffffffffffffffffffff82169050919050565b60006104b082610485565b9050919050565b6104c0816104a5565b81146104cb57600080fd5b50565b6000813590506104dd816104b7565b92915050565b600080fd5b600080fd5b6000601f19601f8301169050919050565b7f4e487b7100000000000000000000000000000000000000000000000000000000600052604160045260246000fd5b610536826104ed565b810181811067ffffffffffffffff82111715610555576105546104fe565b5b80604052505050565b6000610568610471565b9050610574828261052d565b919050565b600067ffffffffffffffff821115610594576105936104fe565b5b61059d826104ed565b9050602081019050919050565b82818337600083830152505050565b60006105cc6105c784610579565b61055e565b9050828152602081018484840111156105e8576105e76104e8565b5b6105f38482856105aa565b509392505050565b600082601f8301126106105761060f6104e3565b5b81356106208482602086016105b9565b91505092915050565b6000806000606084860312156106425761064161047b565b5b6000610650868287016104ce565b935050602084013567ffffffffffffffff81111561067157610670610480565b5b61067d868287016105fb565b925050604084013567ffffffffffffffff81111561069e5761069d610480565b5b6106aa868287016105fb565b9150509250925092565b600081519050919050565b600082825260208201905092915050565b6000819050602082019050919050565b600081519050919050565b600082825260208201905092915050565b60005b8381101561071a5780820151818401526020810190506106ff565b60008484015250505050565b6000610731826106e0565b61073b81856106eb565b935061074b8185602086016106fc565b610754816104ed565b840191505092915050565b610768816104a5565b82525050565b6000606083016000830151848203600086015261078b8282610726565b91505060208301516107a0602086018261075f565b50604083015184820360408601526107b88282610726565b9150508091505092915050565b60006107d1838361076e565b905092915050565b6000602082019050919050565b60006107f1826106b4565b6107fb81856106bf565b93508360208202850161080d856106d0565b8060005b85811015610849578484038952815161082a85826107c5565b9450610835836107d9565b925060208a01995050600181019050610811565b50829750879550505050505092915050565b6000602082019050818103600083015261087581846107e6565b905092915050565b600082825260208201905092915050565b7f4f6e6c792074686520636f6e7472616374206f776e65722063616e207065726660008201527f6f726d207468697320616374696f6e0000000000000000000000000000000000602082015250565b60006108ea602f8361087d565b91506108f58261088e565b604082019050919050565b60006020820190508181036000830152610919816108dd565b9050919050565b7f4e487b7100000000000000000000000000000000000000000000000000000000600052602260045260246000fd5b6000600282049050600182168061096757607f821691505b60208210810361097a57610979610920565b5b50919050565b60008190508160005260206000209050919050565b60006020601f8301049050919050565b600082821b905092915050565b6000600883026109e27fffffffffffffffffffffffffffffffffffffffffffffffffffffffffffffffff826109a5565b6109ec86836109a5565b95508019841693508086168417925050509392505050565b6000819050919050565b6000610a29610a24610a1f8461043d565b610a04565b61043d565b9050919050565b6000819050919050565b610a4383610a0e565b610a57610a4f82610a30565b8484546109b2565b825550505050565b600090565b610a6c610a5f565b610a77818484610a3a565b505050565b5b81811015610a9b57610a90600082610a64565b600181019050610a7d565b5050565b601f821115610ae057610ab181610980565b610aba84610995565b81016020851015610ac9578190505b610add610ad585610995565b830182610a7c565b50505b505050565b600082821c905092915050565b6000610b0360001984600802610ae5565b1980831691505092915050565b6000610b1c8383610af2565b9150826002028217905092915050565b610b35826106e0565b67ffffffffffffffff811115610b4e57610b4d6104fe565b5b610b58825461094f565b610b63828285610a9f565b600060209050601f831160018114610b965760008415610b84578287015190505b610b8e8582610b10565b865550610bf6565b601f198416610ba486610980565b60005b82811015610bcc57848901518255600182019150602085019450602081019050610ba7565b86831015610be95784890151610be5601f891682610af2565b8355505b6001600288020188555050505b505050505050565b7f4e487b7100000000000000000000000000000000000000000000000000000000600052601160045260246000fd5b6000610c388261043d565b91507fffffffffffffffffffffffffffffffffffffffffffffffffffffffffffffffff8203610c6a57610c69610bfe565b5b600182019050919050565b610c7e816104a5565b82525050565b6000602082019050610c996000830184610c75565b9291505056fea264697066735822122018b2fc524e6ac7971411b337af09c1571c25fc228d34213d843e85f46809762e64736f6c63430008120033",
  "linkReferences": {},
  "deployedLinkReferences": {}
}